{
  "contractName": "InvestmentBank",
  "abi": [
    {
      "anonymous": false,
      "inputs": [
        {
          "indexed": true,
          "internalType": "address",
          "name": "previousOwner",
          "type": "address"
        },
        {
          "indexed": true,
          "internalType": "address",
          "name": "newOwner",
          "type": "address"
        }
      ],
      "name": "OwnershipTransferred",
      "type": "event"
    },
    {
      "inputs": [
        {
          "internalType": "address",
          "name": "",
          "type": "address"
        },
        {
          "internalType": "bytes32",
          "name": "",
          "type": "bytes32"
        }
      ],
      "name": "deposits",
      "outputs": [
        {
          "internalType": "uint256",
          "name": "depositTime",
          "type": "uint256"
        },
        {
          "internalType": "uint256",
          "name": "depositValue",
          "type": "uint256"
        }
      ],
      "stateMutability": "view",
      "type": "function",
      "constant": true
    },
    {
      "inputs": [],
      "name": "interestTokenAddress",
      "outputs": [
        {
          "internalType": "address",
          "name": "",
          "type": "address"
        }
      ],
      "stateMutability": "view",
      "type": "function",
      "constant": true
    },
    {
      "inputs": [],
      "name": "owner",
      "outputs": [
        {
          "internalType": "address",
          "name": "",
          "type": "address"
        }
      ],
      "stateMutability": "view",
      "type": "function",
      "constant": true
    },
    {
      "inputs": [],
      "name": "renounceOwnership",
      "outputs": [],
      "stateMutability": "nonpayable",
      "type": "function"
    },
    {
      "inputs": [
        {
          "internalType": "bytes32",
          "name": "",
          "type": "bytes32"
        }
      ],
      "name": "tokenMapping",
      "outputs": [
        {
          "internalType": "address",
          "name": "tokenAddress",
          "type": "address"
        },
        {
          "internalType": "uint256",
          "name": "tokenInterest",
          "type": "uint256"
        }
      ],
      "stateMutability": "view",
      "type": "function",
      "constant": true
    },
    {
      "inputs": [
        {
          "internalType": "address",
          "name": "newOwner",
          "type": "address"
        }
      ],
      "name": "transferOwnership",
      "outputs": [],
      "stateMutability": "nonpayable",
      "type": "function"
    },
    {
      "inputs": [
        {
          "internalType": "bytes32",
          "name": "ticker",
          "type": "bytes32"
        },
        {
          "internalType": "address",
          "name": "tokenAddress",
          "type": "address"
        },
        {
          "internalType": "uint256",
          "name": "tokenInterest",
          "type": "uint256"
        }
      ],
      "name": "addToken",
      "outputs": [],
      "stateMutability": "nonpayable",
      "type": "function"
    },
    {
      "inputs": [
        {
          "internalType": "bytes32",
          "name": "ticker",
          "type": "bytes32"
        },
        {
          "internalType": "uint256",
          "name": "amount",
          "type": "uint256"
        }
      ],
      "name": "deposit",
      "outputs": [],
      "stateMutability": "nonpayable",
      "type": "function"
    },
    {
      "inputs": [
        {
          "internalType": "bytes32",
          "name": "ticker",
          "type": "bytes32"
        },
        {
          "internalType": "uint256",
          "name": "amount",
          "type": "uint256"
        }
      ],
      "name": "withdraw",
      "outputs": [],
      "stateMutability": "nonpayable",
      "type": "function"
    },
    {
      "inputs": [
        {
          "internalType": "address",
          "name": "_address",
          "type": "address"
        }
      ],
      "name": "setInterestTokenAddress",
      "outputs": [],
      "stateMutability": "nonpayable",
      "type": "function"
    }
  ],
  "bytecode": "0x608060405234801561001057600080fd5b5061002d61002261003260201b60201c565b61003a60201b60201c565b6100fe565b600033905090565b60008060009054906101000a900473ffffffffffffffffffffffffffffffffffffffff169050816000806101000a81548173ffffffffffffffffffffffffffffffffffffffff021916908373ffffffffffffffffffffffffffffffffffffffff1602179055508173ffffffffffffffffffffffffffffffffffffffff168173ffffffffffffffffffffffffffffffffffffffff167f8be0079c531659141344cd1fd0a4f28419497f9722a3daafe3b4186f6b6457e060405160405180910390a35050565b6113f68061010d6000396000f3fe608060405234801561001057600080fd5b506004361061009e5760003560e01c8063715018a611610066578063715018a6146101595780638da5cb5b14610163578063974765a114610181578063d28b40191461019d578063f2fde38b146101bb5761009e565b8063040cf020146100a35780631de26e16146100bf5780632260a9c2146100db57806347b1b5a41461010c578063667cb4ba14610128575b600080fd5b6100bd60048036038101906100b89190610fe1565b6101d7565b005b6100d960048036038101906100d49190610fe1565b6105a4565b005b6100f560048036038101906100f09190610f04565b610892565b6040516101039291906111c5565b60405180910390f35b61012660048036038101906101219190610edb565b6108c3565b005b610142600480360381019061013d9190610f69565b610983565b60405161015092919061115c565b60405180910390f35b6101616109c7565b005b61016b610a4f565b604051610178919061110a565b60405180910390f35b61019b60048036038101906101969190610f92565b610a78565b005b6101a5610b8b565b6040516101b2919061110a565b60405180910390f35b6101d560048036038101906101d09190610edb565b610bb1565b005b81600073ffffffffffffffffffffffffffffffffffffffff166002600083815260200190815260200160002060000160009054906101000a900473ffffffffffffffffffffffffffffffffffffffff1673ffffffffffffffffffffffffffffffffffffffff16141561024857600080fd5b81600160003373ffffffffffffffffffffffffffffffffffffffff1673ffffffffffffffffffffffffffffffffffffffff16815260200190815260200160002060008581526020019081526020016000206001015410156102a857600080fd5b60006102b48484610ca9565b905080600360009054906101000a900473ffffffffffffffffffffffffffffffffffffffff1673ffffffffffffffffffffffffffffffffffffffff166370a08231306040518263ffffffff1660e01b8152600401610312919061110a565b60206040518083038186803b15801561032a57600080fd5b505afa15801561033e573d6000803e3d6000fd5b505050506040513d601f19601f82011682018060405250810190610362919061101d565b101561036d57600080fd5b6103d383600160003373ffffffffffffffffffffffffffffffffffffffff1673ffffffffffffffffffffffffffffffffffffffff168152602001908152602001600020600087815260200190815260200160002060010154610d6490919063ffffffff16565b600160003373ffffffffffffffffffffffffffffffffffffffff1673ffffffffffffffffffffffffffffffffffffffff1681526020019081526020016000206000868152602001908152602001600020600101819055506002600085815260200190815260200160002060000160009054906101000a900473ffffffffffffffffffffffffffffffffffffffff1673ffffffffffffffffffffffffffffffffffffffff1663a9059cbb33856040518363ffffffff1660e01b815260040161049b92919061115c565b602060405180830381600087803b1580156104b557600080fd5b505af11580156104c9573d6000803e3d6000fd5b505050506040513d601f19601f820116820180604052508101906104ed9190610f40565b50600360009054906101000a900473ffffffffffffffffffffffffffffffffffffffff1673ffffffffffffffffffffffffffffffffffffffff1663a9059cbb33836040518363ffffffff1660e01b815260040161054b92919061115c565b602060405180830381600087803b15801561056557600080fd5b505af1158015610579573d6000803e3d6000fd5b505050506040513d601f19601f8201168201806040525081019061059d9190610f40565b5050505050565b81600073ffffffffffffffffffffffffffffffffffffffff166002600083815260200190815260200160002060000160009054906101000a900473ffffffffffffffffffffffffffffffffffffffff1673ffffffffffffffffffffffffffffffffffffffff16141561061557600080fd5b816002600085815260200190815260200160002060000160009054906101000a900473ffffffffffffffffffffffffffffffffffffffff1673ffffffffffffffffffffffffffffffffffffffff166370a08231336040518263ffffffff1660e01b8152600401610685919061110a565b60206040518083038186803b15801561069d57600080fd5b505afa1580156106b1573d6000803e3d6000fd5b505050506040513d601f19601f820116820180604052508101906106d5919061101d565b10156106e057600080fd5b6000600160003373ffffffffffffffffffffffffffffffffffffffff1673ffffffffffffffffffffffffffffffffffffffff1681526020019081526020016000206000858152602001908152602001600020600101549050604051806040016040528042815260200161075c8584610d7a90919063ffffffff16565b815250600160003373ffffffffffffffffffffffffffffffffffffffff1673ffffffffffffffffffffffffffffffffffffffff168152602001908152602001600020600086815260200190815260200160002060008201518160000155602082015181600101559050506002600085815260200190815260200160002060000160009054906101000a900473ffffffffffffffffffffffffffffffffffffffff1673ffffffffffffffffffffffffffffffffffffffff166323b872dd3330866040518463ffffffff1660e01b815260040161083993929190611125565b602060405180830381600087803b15801561085357600080fd5b505af1158015610867573d6000803e3d6000fd5b505050506040513d601f19601f8201168201806040525081019061088b9190610f40565b5050505050565b6001602052816000526040600020602052806000526040600020600091509150508060000154908060010154905082565b6108cb610d90565b73ffffffffffffffffffffffffffffffffffffffff166108e9610a4f565b73ffffffffffffffffffffffffffffffffffffffff161461093f576040517f08c379a0000000000000000000000000000000000000000000000000000000008152600401610936906111a5565b60405180910390fd5b80600360006101000a81548173ffffffffffffffffffffffffffffffffffffffff021916908373ffffffffffffffffffffffffffffffffffffffff16021790555050565b60026020528060005260406000206000915090508060000160009054906101000a900473ffffffffffffffffffffffffffffffffffffffff16908060010154905082565b6109cf610d90565b73ffffffffffffffffffffffffffffffffffffffff166109ed610a4f565b73ffffffffffffffffffffffffffffffffffffffff1614610a43576040517f08c379a0000000000000000000000000000000000000000000000000000000008152600401610a3a906111a5565b60405180910390fd5b610a4d6000610d98565b565b60008060009054906101000a900473ffffffffffffffffffffffffffffffffffffffff16905090565b610a80610d90565b73ffffffffffffffffffffffffffffffffffffffff16610a9e610a4f565b73ffffffffffffffffffffffffffffffffffffffff1614610af4576040517f08c379a0000000000000000000000000000000000000000000000000000000008152600401610aeb906111a5565b60405180910390fd5b60405180604001604052808373ffffffffffffffffffffffffffffffffffffffff168152602001828152506002600085815260200190815260200160002060008201518160000160006101000a81548173ffffffffffffffffffffffffffffffffffffffff021916908373ffffffffffffffffffffffffffffffffffffffff16021790555060208201518160010155905050505050565b600360009054906101000a900473ffffffffffffffffffffffffffffffffffffffff1681565b610bb9610d90565b73ffffffffffffffffffffffffffffffffffffffff16610bd7610a4f565b73ffffffffffffffffffffffffffffffffffffffff1614610c2d576040517f08c379a0000000000000000000000000000000000000000000000000000000008152600401610c24906111a5565b60405180910390fd5b600073ffffffffffffffffffffffffffffffffffffffff168173ffffffffffffffffffffffffffffffffffffffff161415610c9d576040517f08c379a0000000000000000000000000000000000000000000000000000000008152600401610c9490611185565b60405180910390fd5b610ca681610d98565b50565b600080600160003373ffffffffffffffffffffffffffffffffffffffff1673ffffffffffffffffffffffffffffffffffffffff168152602001908152602001600020600085815260200190815260200160002060000154905060004290506000610d1c8383610d6490919063ffffffff16565b9050610d5985610d4b83600260008b815260200190815260200160002060010154610e5c90919063ffffffff16565b610e5c90919063ffffffff16565b935050505092915050565b60008183610d7291906112af565b905092915050565b60008183610d8891906111ff565b905092915050565b600033905090565b60008060009054906101000a900473ffffffffffffffffffffffffffffffffffffffff169050816000806101000a81548173ffffffffffffffffffffffffffffffffffffffff021916908373ffffffffffffffffffffffffffffffffffffffff1602179055508173ffffffffffffffffffffffffffffffffffffffff168173ffffffffffffffffffffffffffffffffffffffff167f8be0079c531659141344cd1fd0a4f28419497f9722a3daafe3b4186f6b6457e060405160405180910390a35050565b60008183610e6a9190611255565b905092915050565b600081359050610e8181611364565b92915050565b600081519050610e968161137b565b92915050565b600081359050610eab81611392565b92915050565b600081359050610ec0816113a9565b92915050565b600081519050610ed5816113a9565b92915050565b600060208284031215610eed57600080fd5b6000610efb84828501610e72565b91505092915050565b60008060408385031215610f1757600080fd5b6000610f2585828601610e72565b9250506020610f3685828601610e9c565b9150509250929050565b600060208284031215610f5257600080fd5b6000610f6084828501610e87565b91505092915050565b600060208284031215610f7b57600080fd5b6000610f8984828501610e9c565b91505092915050565b600080600060608486031215610fa757600080fd5b6000610fb586828701610e9c565b9350506020610fc686828701610e72565b9250506040610fd786828701610eb1565b9150509250925092565b60008060408385031215610ff457600080fd5b600061100285828601610e9c565b925050602061101385828601610eb1565b9150509250929050565b60006020828403121561102f57600080fd5b600061103d84828501610ec6565b91505092915050565b61104f816112e3565b82525050565b60006110626026836111ee565b91507f4f776e61626c653a206e6577206f776e657220697320746865207a65726f206160008301527f64647265737300000000000000000000000000000000000000000000000000006020830152604082019050919050565b60006110c86020836111ee565b91507f4f776e61626c653a2063616c6c6572206973206e6f7420746865206f776e65726000830152602082019050919050565b6111048161132b565b82525050565b600060208201905061111f6000830184611046565b92915050565b600060608201905061113a6000830186611046565b6111476020830185611046565b61115460408301846110fb565b949350505050565b60006040820190506111716000830185611046565b61117e60208301846110fb565b9392505050565b6000602082019050818103600083015261119e81611055565b9050919050565b600060208201905081810360008301526111be816110bb565b9050919050565b60006040820190506111da60008301856110fb565b6111e760208301846110fb565b9392505050565b600082825260208201905092915050565b600061120a8261132b565b91506112158361132b565b9250827fffffffffffffffffffffffffffffffffffffffffffffffffffffffffffffffff0382111561124a57611249611335565b5b828201905092915050565b60006112608261132b565b915061126b8361132b565b9250817fffffffffffffffffffffffffffffffffffffffffffffffffffffffffffffffff04831182151516156112a4576112a3611335565b5b828202905092915050565b60006112ba8261132b565b91506112c58361132b565b9250828210156112d8576112d7611335565b5b828203905092915050565b60006112ee8261130b565b9050919050565b60008115159050919050565b6000819050919050565b600073ffffffffffffffffffffffffffffffffffffffff82169050919050565b6000819050919050565b7f4e487b7100000000000000000000000000000000000000000000000000000000600052601160045260246000fd5b61136d816112e3565b811461137857600080fd5b50565b611384816112f5565b811461138f57600080fd5b50565b61139b81611301565b81146113a657600080fd5b50565b6113b28161132b565b81146113bd57600080fd5b5056fea2646970667358221220e9ca9d551573c4bb6873c3e49e43cba1f4eda01c4845d013217227d442906a8064736f6c63430008000033",
  "immutableReferences": {},
  "source": "pragma solidity ^0.8.0;\r\nimport \"@openzeppelin/contracts/access/Ownable.sol\";\r\nimport \"@openzeppelin/contracts/utils/math/SafeMath.sol\";\r\nimport \"@openzeppelin/contracts/token/ERC20/IERC20.sol\";\r\n\r\ncontract InvestmentBank is Ownable {\r\n\r\n    using SafeMath for uint;\r\n\r\n    mapping(address => mapping(bytes32 => Deposit)) public deposits;\r\n\r\n    mapping(bytes32 => Token) public tokenMapping;\r\n    \r\n    address public interestTokenAddress;\r\n\r\n    modifier tokenExists(bytes32 ticker) {\r\n        require(tokenMapping[ticker].tokenAddress != address(0));\r\n        _;\r\n    }\r\n\r\n    struct Deposit {\r\n        uint depositTime;\r\n        uint depositValue;\r\n    }\r\n\r\n    struct Token {\r\n        address tokenAddress;\r\n        uint tokenInterest;\r\n    }\r\n\r\n    // Owner can add new tokens to the bank.\r\n    function addToken(bytes32 ticker, address tokenAddress, uint tokenInterest) onlyOwner public {\r\n        tokenMapping[ticker] = Token(tokenAddress, tokenInterest);\r\n    }\r\n\r\n    // Users can deposit tokens that have been added to the bank.\r\n    function deposit(bytes32 ticker, uint amount) external tokenExists(ticker) {\r\n        require(IERC20(tokenMapping[ticker].tokenAddress).balanceOf(msg.sender) >= amount);\r\n        uint alreadyDeposited = deposits[msg.sender][ticker].depositValue;\r\n        deposits[msg.sender][ticker] = Deposit(block.timestamp, alreadyDeposited.add(amount));\r\n        IERC20(tokenMapping[ticker].tokenAddress).transferFrom(msg.sender, address(this), amount);\r\n    }\r\n\r\n    // Users can withdraw tokens and the interest is paid at the time of withdrawal.\r\n    function withdraw(bytes32 ticker, uint amount) external tokenExists(ticker) {\r\n        require(deposits[msg.sender][ticker].depositValue >= amount);\r\n        uint interest = calculateInterest(ticker, amount);\r\n        require(IERC20(interestTokenAddress).balanceOf(address(this)) >= interest);\r\n        deposits[msg.sender][ticker].depositValue = deposits[msg.sender][ticker].depositValue.sub(amount);\r\n        IERC20(tokenMapping[ticker].tokenAddress).transfer(msg.sender, amount);\r\n        IERC20(interestTokenAddress).transfer(msg.sender, interest);\r\n    }\r\n\r\n    // Owner can change the address for interest token.\r\n    function setInterestTokenAddress(address _address) external onlyOwner{\r\n        interestTokenAddress = _address;\r\n    }\r\n\r\n    // This function calculates the amount of interest tokens paid at the time of withdrawal.\r\n    function calculateInterest(bytes32 ticker, uint amount) internal view returns(uint) {\r\n        uint depositTime = deposits[msg.sender][ticker].depositTime;\r\n        uint currentTime = block.timestamp;\r\n        uint interestTime = currentTime.sub(depositTime);\r\n        return((tokenMapping[ticker].tokenInterest.mul(interestTime)).mul(amount));\r\n    }\r\n\r\n}",
  "sourcePath": "C:/Users/Anonymous/bc/bc-investment-bank-solidity/contracts/InvestmentBank.sol",
  "compiler": {
    "name": "solc",
    "version": "0.8.0+commit.c7dfd78e.Emscripten.clang"
  },
  "schemaVersion": "3.4.1",
  "updatedAt": "2021-07-26T09:18:10.203Z",
  "networkType": "ethereum",
  "devdoc": {
    "kind": "dev",
    "methods": {
      "owner()": {
        "details": "Returns the address of the current owner."
      },
      "renounceOwnership()": {
        "details": "Leaves the contract without owner. It will not be possible to call `onlyOwner` functions anymore. Can only be called by the current owner. NOTE: Renouncing ownership will leave the contract without an owner, thereby removing any functionality that is only available to the owner."
      },
      "transferOwnership(address)": {
        "details": "Transfers ownership of the contract to a new account (`newOwner`). Can only be called by the current owner."
      }
    },
    "version": 1
  },
  "userdoc": {
    "kind": "user",
    "methods": {},
    "version": 1
  }
}